:020000002B28AB
:10000800FF00030E8301A3000A08A4008A010B1D48
:100018001128A20A9E3081000B1124088A00230EA1
:080028008300FF0E7F0E0900AA
:0E0030008312031321088A00200882000800B2
:10003E0018208A110A128000840AA00A0319A10A44
:08004E00F003031D1F28080048
:1000560083120313A2018601060883168600831203
:100066000610C73083168100C0308B008B160B112B
:100076009E308312810080302206F0008030643A80
:100086007002031C4928A201013086063E284A2830
:02400E00CB2FB6
:00000001FF
