:020000001628C0
:0E0006008312031322088A00210882000800DA
:1000140003208A110A128000840AA10A0319A20A81
:08002400F003031D0A28080087
:10002C0083120313A0018316860183128601033009
:10003C00831687008312870107182828A00A07183F
:10004C002828252887182E28A00387182E282B2827
:10005C0080302006F0008030003A700203183928F6
:10006C000930A00042288030093AF0008030200688
:10007C00700203184228A001200886002228452877
:02400E00CB2FB6
:00000001FF
