:020000003B289B
:10000800FF00030E8301A2000A08A3008A010B1C4B
:100018001F288B13061E1328013086061728861EF4
:10002800172802308606061F1B2804308606861FFE
:100038001F28083086060B108B1723088A00220E0B
:080048008300FF0E7F0E09008A
:0E0050008312031321088A0020088200080092
:10005E0028208A110A128000840AA00A0319A10A14
:08006E00F003031D2F28080018
:10007600F030831603138600831286010B108B154E
:080086008B170B1345284628D7
:02400E00CB2FB6
:00000001FF
