:020000001329C2
:10000600103083120313FD00FD0B072800000800C3
:0400160000000800DE
:10001A00083083120313FC002330FD00FD0B132864
:06002A00FC0B1328080086
:1000300083120313C51B1E2888131F288817451B0E
:100040002328081324280817C51A282888122928C5
:100050008816451A2D2808122E2808163D18322811
:1000600008153328081188150B208811C5193A285E
:1000700088133B28881745193F280813402808177C
:10008000C51844288812452888164518492808129A
:100090004A2808163D184E2808154F2808118815BB
:1000A0000B2088113D1C56280D20572803200800DE
:0E00B000831203133F088A003E0882000800F6
:1000BE00831203133D104408C50018203D14080098
:1000CE007928803083120313C0008C28C030C00002
:1000DE008C289430C0008C28D430C0008C288030FE
:1000EE00C0008C28831203134008013A03196828B4
:1000FE004008023A03196D284008033A0319702884
:10010E004008043A0319732876284103F00040088A
:10011E00F0077008C0007008C50018203D10C3011C
:10012E0043084207840000080319A5284308420724
:10013E0084000008C4005F20C30A97283D140800FD
:10014E0083120313C10141084007840000080319FC
:10015E00B8284108400784000008C4005F20C10A87
:04016E00AA280800B3
:1001720083160313881108110812881208138813B2
:1001820083128811081188130813881208120D208F
:100192000D200D208816081688150B2088110D20B9
:1001A20088150B2088110D2088150B2088110D2031
:1001B200081288150B2088110D2088150B20881134
:1001C2008812881788150B2088110D2088130816AD
:1001D20088150B208811081288150B2088110D2014
:1001E20088150B208811081688150B2088110D2000
:1001F200081288150B208811881708178816081608
:0C02020088150B2088110D203D14080009
:10020E0058208A110A128000840ABE0A0319BF0AF6
:08021E00F003031D072908008D
:10022600203083120313A0004330A1004530A20002
:100236004C30A3004530A4004230A5004930A6004A
:10024600A7014C30A8006330A9006430AA00203012
:10025600AB004330AC006C30AD006530AE006130B1
:10026600AF006E30B0006530B1006430B2002030AF
:10027600B3002130B400B501B6014830B700613093
:10028600B8006B30B9006130BA006E30BB00BC01FB
:1002960083168614861851290610522906148312CD
:1002A600861486185829061059290614B9203608C6
:1002B600031D80290F30C50018200130C500182005
:1002C6003730C000A7200430FB00CF30FC000130DF
:1002D600FD00FD0B6C29FC0B6C29FB0B6C29000047
:1002E60000000230C0000630C1002030C200672086
:1002F6000C30C50018200130B60006189F290130C1
:10030600C50018202830C000A7200630FB00133097
:10031600FC00AD30FD00FD0B8E29FC0B8E29FB0B7E
:100326008E29000000000130C50018200830C500E5
:10033600182006189F299C298618AB290130C5006C
:1003460018200C30C5001820B6018618AB29A8293C
:040356005A29AC294B
:02400E00CB2FB6
:00000001FF
