:020000001628C0
:0E0006008312031321088A00200882000800DC
:1000140003208A110A128000840AA00A0319A10A83
:08002400F003031D0A28080087
:10002C0083120313A201831686013F3083128600CC
:10003C00A2010B3022020318472822080A3A031D9A
:10004C002828A2012208483EF00000300318013E87
:10005C00F1007008A0007108A10003208A110A1297
:10006C0086000330FB008A30FC005530FD00FD0B90
:10007C003D28FC0B3D28FB0B3D2800000000A20A8C
:04008C001F284728BA
:100090003F3406345B344F3466346D347D3407347A
:0400A0007F346F3406
:02400E00CB2FB6
:00000001FF
