:020000002D28A9
:10000800FF00030E8301A3000A08A4008A010C1C48
:100018001328A20A9E308F0058308E000C10240836
:0C0028008A00230E8300FF0E7F0E0900EB
:0E0034008312031321088A00200882000800AE
:100042001A208A110A128000840AA00A0319A10A3E
:08005200F003031D2128080042
:10005A008312031386010608831686000608831294
:10006A00A2009E308F0058308E001016101A3F28BA
:10007A00901240289016901190101014C0308B00E6
:10008A0083160C1483120C10572803308600672835
:10009A000C3086006728303086006728C03086001A
:1000AA00A20167282208323A03194A282208643A28
:1000BA0003194D282208963A031950282208C83AEB
:0800CA00031953284928682896
:02400E00CB2FB6
:00000001FF
