:020000004A288C
:10000800FF00030E8301A2000A08A3008A010B1C4B
:1000180022288B138601061E142801308606222802
:10002800861E1928023086062228061F1E2804303C
:1000380086062228861F222808308606061E2528BE
:100048002228861E28282528061F2B282828861FB0
:100058002E282B280B108B1723088A00220E8300CA
:06006800FF0E7F0E0900EF
:0E006E008312031321088A0020088200080074
:10007C0037208A110A128000840AA00A0319A10AE7
:08008C00F003031D3E280800EB
:10009400F030831603138600831286010B108B1530
:0800A4008B170B13542855289B
:02400E00CB2FB6
:00000001FF
