:020000004E2888
:1000060083120313F8010830FC00700DF80D740814
:10001600F80203181028F8070310F00DFC0B082847
:020026000800D0
:0E0028008312031322088A00210882000800B8
:1000360014208A110A128000840AA10A0319A20A4E
:08004600F003031D1B28080054
:10004E0083120313A4012308093C031849280A301C
:10005E00F4002308F00003207008A4007008A40028
:10006E00A40D2410A40D2410A40D2410A40D2410EE
:10007E000A30F4002308F00003207808F00070081E
:0E008E00A4044B282308A4002408F000080056
:10009C0083120313A0018316860183128601033099
:1000AC00831687008312870107186028A00A071897
:1000BC0060285D2887186628A0038718662863289F
:1000CC008030633AF00080302006700203187028EC
:1000DC00A0017A2880302006F0008030003A7002AF
:1000EC0003187A286330A0002008A300272070088A
:0600FC0086005A2880284E
:02400E00CB2FB6
:00000001FF
