:020000001628C0
:0E0006008312031321088A00200882000800DC
:1000140003208A110A128000840AA00A0319A10A83
:08002400F003031D0A28080087
:10002C000F30831603139F048601831286018617F3
:10003C000D30FB00AF30FC00B630FD00FD0B24286A
:10004C00FC0B2428FB0B24280000861306170D300C
:10005C00FB00AF30FC00B630FD00FD0B3328FC0B71
:10006C003328FB0B33280000061386160D30FB00DB
:10007C00AF30FC00B630FD00FD0B4228FC0B4228D3
:10008C00FB0B42280000861206160D30FB00AF3029
:10009C00FC00B630FD00FD0B5128FC0B5128FB0B6E
:1000AC0051280000061286150D30FB00AF30FC0005
:1000BC00B630FD00FD0B6028FC0B6028FB0B6028A4
:1000CC000000861106150D30FB00AF30FC00B63079
:1000DC00FD00FD0B6F28FC0B6F28FB0B6F2800003D
:1000EC00061186140D30FB00AF30FC00B630FD005D
:1000FC00FD0B7E28FC0B7E28FB0B7E280000861057
:10010C0006140D30FB00AF30FC00B630FD00FD0BCB
:10011C008D28FC0B8D28FB0B8D28000006101D284C
:02012C00962813
:02400E00CB2FB6
:00000001FF
