:020000001329C2
:10000600103083120313FD00FD0B072800000800C3
:0400160000000800DE
:10001A00083083120313FC002330FD00FD0B132864
:06002A00FC0B1328080086
:1000300083120313C81B1E2888131F288817481B08
:100040002328081324280817C81A282888122928C2
:100050008816481A2D2808122E280816401832280B
:1000600008153328081188150B208811C8193A285B
:1000700088133B28881748193F2808134028081779
:10008000C818442888124528881648184928081294
:100090004A28081640184E2808154F2808118815B8
:1000A0000B208811401C56280D20572803200800DB
:0E00B0008312031342088A00410882000800F0
:1000BE008312031340104708C8001820401408008C
:1000CE007928803083120313C3008C28C030C300FC
:1000DE008C289430C3008C28D430C3008C288030F8
:1000EE00C3008C28831203134308013A03196828AE
:1000FE004308023A03196D284308033A031970287E
:10010E004308043A0319732876284403F000430881
:10011E00F0077008C3007008C80018204010C60110
:10012E0046084507840000080319A5284608450718
:10013E0084000008C7005F20C60A972840140800F4
:10014E0083120313C40144084307840000080319F3
:10015E00B8284408430784000008C7005F20C40A7B
:04016E00AA280800B3
:1001720083160313881108110812881208138813B2
:1001820083128811081188130813881208120D208F
:100192000D200D208816081688150B2088110D20B9
:1001A20088150B2088110D2088150B2088110D2031
:1001B200081288150B2088110D2088150B20881134
:1001C2008812881788150B2088110D2088130816AD
:1001D20088150B208811081288150B2088110D2014
:1001E20088150B208811081688150B2088110D2000
:1001F200081288150B208811881708178816081608
:0C02020088150B2088110D204014080006
:10020E0058208A110A128000840AC10A0319C20AF0
:08021E00F003031D072908008D
:10022600483083120313A0006130A1006B30A20096
:100236006130A3006E30A400A5014D30A600493000
:10024600A7004330A8005230A9004F30AA002D3035
:10025600AB004330AC00AD014330AE004530AF00DB
:100266004C30B0004530B1004230B2004930B300E6
:10027600B4015030B5004930B6004330B7003130D4
:10028600B8003630B9004630BA003830BB003730D7
:10029600BC003730BD004130BE00BF0104308316BC
:1002A600860083128601B9200130C8001820353037
:1002B600C300A7200230C3000930C4002630C500A1
:1002C60067200C30C8001820861C6F290130C80032
:1002D6001820861C6F296C29061C81290130C8004C
:1002E60018202030C300A7200230C3000630C40007
:1002F6002E30C5006720061C81297E29061D892906
:100306001830C8001820061D89298629861D9129BE
:100316001C30C8001820861D91298E29672992292C
:02400E00CB2FB6
:00000001FF
