:020000001628C0
:0E0006008312031321088A00200882000800DC
:1000140003208A110A128000840AA00A0319A10A83
:08002400F003031D0A28080087
:10002C0083120313A2018316860183122208F000A7
:10003C00F101F00DF10D7010B930F007003003181C
:10004C00013EF1077008A0007108A10003208A117D
:10005C000A12860083168814881836280810372848
:10006C0008148312881088183D2808103E2808149C
:10007C00081C79282208093A03195A28A20A2208CE
:10008C00F000F101F00DF10D7010B930F0070030F7
:10009C000318013EF1077008A0007108A1000320AD
:1000AC008A110A1286006B28A201F001F101B93005
:1000BC00F00700300318013EF1077008A00071082A
:1000CC00A10003208A110A1286000430FB000C30B8
:1000DC00FC003330FD00FD0B7128FC0B7128FB0B71
:1000EC00712800000000881CB7282208003A031968
:1000FC009528A2032208F000F101F00DF10D70100B
:10010C00B930F00700300318013EF1077008A00069
:10011C007108A10003208A110A128600A92809304F
:10012C00A2001230F0000030F100B930F0070030BE
:10013C000318013EF1077008A0007108A10003200C
:10014C008A110A1286000430FB000C30FC0033309C
:10015C00FD00FD0BAF28FC0BAF28FB0BAF280000FC
:06016C0000003E28B82847
:100172003F340034063400345B3400344F340034EE
:10018200663400346D3400347D3400340734003476
:080192007F3400346F340034A7
:02400E00CB2FB6
:00000001FF
